:020000040800F2
:1000000048FA012065020008431001087DFF00083E
:1000100041100108B9EB0008557401080000000008
:10002000000000000000000000000000AD0100081A
:100030003DF200080000000001020008B12B010899
:100040007F0200087F0200087F0200087F0200088C
:100050007F0200087F0200087F0200087F0200087C
:100060007F0200087F0200087F0200087F0200086C
:100070007F0200087F0200087F0200087F0200085C
:100080007F0200087F0200087F0200087F0200084C
:100090007F0200087F0200087F0200087F0200083C
:1000A0007F0200087F0200087F0200087F0200082C
:1000B0007F020008496301087F0200087F020008F0
:1000C0007F0200087F0200087F0200087F0200080C
:1000D0007F020008B17201087F0200087F02000859
:1000E0007F0200087F0200087F0200087F020008EC
:1000F0007F0200087F0200087F0200087F020008DC
:100100007F020008A91501087F0200087F0200088D
:100110007F0200087F0200087F0200087F020008BB
:100120007F0200087F0200087F0200087F020008AB
:100130007F0200087F0200087F0200087F0200089B
:100140007F0200087F0200087F0200087F0200088B
:100150007F0200087F0200087F0200087F0200087B
:100160007F0200087F0200087F0200087F0200086B
:100170007F0200087F0200087F0200087F0200085B
:100180007F0200087F020008DFF80CD000F048FC76
:1001900000480047FD9A010848FA012030BF72B6B6
:1001A000704762B6704780F3088870472A4B196819
:1001B0000868B0E8F04F80F30988BFF36F8F4FF005
:1001C000000080F3118870470000000006480068B6
:1001D000006880F3088862B661B6BFF34F8FBFF343
:1001E0006F8F00DF00BF00BF08ED00E0DFF80C00FC
:1001F000016841F470010160704700BF88ED00E0C4
:10020000EFF30980BFF36F8F134B1A681EF0100FC6
:1002100008BF20ED108A20E9F04F106008B44FF0BD
:10022000500080F31188BFF34F8FBFF36F8F1BF027
:10023000C3F84FF0000080F3118808BC1968086803
:10024000B0E8F04F1EF0100F08BFB0EC108A80F33A
:100250000988BFF36F8F70471C010020EFF3058002
:10026000704700000648804706480047FEE7FEE763
:10027000FEE7FEE7FEE7FEE7FEE7FEE7FEE7FEE756
:10028000C52B0108890100082DE9F0410024061B57
:10029000254671F1000605DA01240027D0EB07009E
:1002A00067EB0101161E73F1000605DA0027D2EB99
:1002B0000702012567EB030300F032FA86460E467B
:1002C00017469C46AC4204D00025D0EB050E65EBEA
:1002D000010624B10020D2EB000760EB030C70464E
:1002E00031463A466346BDE8F08110B5441A0346EC
:1002F000944209D28418114403E011F8013D04F836
:10030000013D521EF9D210BD40EA0104A40703D0FA
:1003100009E010C9121F10C3042AFAD203E011F831
:10032000014B03F8014B521EF9D210BDD2B201E0CD
:1003300000F8012B491EFBD270470022F6E710B5EA
:1003400013460A4604461946FFF7F0FF204610BD43
:10035000421C10F8011B0029FBD1801A704710B510
:10036000002200E0521C835C8C5CA34201D1002B74
:10037000F8D1D8B2E1B2401A10BD034611F8012BF2
:1003800000F8012B002AF9D11846704770B50646CF
:1003900017F0B8FD046805460A220021304600F037
:1003A00021FA2C6070BD2DE9FE4F804681EA0300E2
:1003B000C00F0C46009021F0004123F00045B8EB3F
:1003C0000200A94105D24046214690461C460B46F4
:1003D000024623F00040104347D0270DC7F30A0020
:1003E000C3F30A510290401A019040286BDAC3F31C
:1003F000130040F4801B0098924620B10023D2EBFA
:10040000030A63EB0B0B01985946C0F140025046BA
:1004100000F0B7F906460D4650465946019A00F0DD
:10042000CFF910EB08006141002487EA115284EAF9
:10043000E7731A4340D0009A62B3019A012A4FEA47
:10044000075215DC001B61EB02014FF0004202EA8B
:100450000752CDE90042001C41F5801132462B467F
:1004600000F03EFA03B0BDE8F08F40462146F9E7C0
:10047000001B61EB0201001C41F5801300185B4179
:100480002018A2F5001747EB030140EAD570B61912
:100490006D4111E06D084FEA360645EAC0754FEA36
:1004A0000752001B61EB0201001C41F58011490855
:1004B0004FEA30000019514132462B4603B0BDE8E7
:1004C000F04F00F0FEB90098012240000023D0EB6D
:1004D000020263EBE073009821464FEAE074B8EB48
:1004E000000061EB0401E9E783F000435BE781F082
:1004F000004158E72DE9FE4F81EA030404F000446F
:1005000021F0004100944FF0000B23F0004350EA2B
:1005100001045ED052EA03045BD0C3F30A54C1F372
:100520000A552C44A4F2F3340194A0FB0254C1F305
:10053000130141F48011C3F3130343F4801301FB4F
:10054000024400FB034E840A970A44EA815447EAB6
:100550008357A4FB076802958D0A05FB07854FEAC0
:10056000932C04FB0C542705029D4FEA065847EADA
:100570001637B5EB08056EEB070C870E920E47EAAF
:10058000811742EA8312A7FB0201B6EB0B0164EB71
:1005900000042B0D43EA0C335E1844EB1C50DA4682
:1005A0005146E7FB0201C5F313044FEA0B3343EA5C
:1005B00014534FEA0432019C43EA0603A4F10C04ED
:1005C0000294009CCDE900B400F08AF903B0BDE8C4
:1005D000F08F00200146F9E70EB540F23341029159
:1005E0000021CDE900110A460B4600F079F903B06D
:1005F00000BD70B5C1F30A5201F000450024C1F3FB
:10060000130140F2FF3341F480119A4201DA0020D5
:1006100070BD40F233439A42A2F2334203DC5242AD
:1006200000F0BEF800E090402C43F1D0404270BD95
:10063000C1F30A5210B5C1F3130140F2FF3341F484
:1006400080119A4201DA002010BD40F233439A42F1
:10065000A2F2334203DC524200F0A2F810BD9040F7
:1006600010BD00F0004230F000400AD0C10D01F58D
:100670006071C0F3160042EA0151C20840071143FD
:10068000704700200146704730B5041E71F1000428
:1006900004DB4FF00044404264EB0101141E73F18F
:1006A000000405DB1C464FF00043524263EB040399
:1006B0008B4208BF824230BD30B5041E71F1000488
:1006C00004DB4FF00044404264EB0101141E73F15F
:1006D000000405DB1C464FF00043524263EB040369
:1006E000994208BF904230BD01F0004330B421F080
:1006F000004150EA010206D00A0DA2F56072C1F372
:100700001301002A02DC30BC00207047440F44EA89
:10071000C104C100E01830BC00EBC25000F09AB830
:100720002DE9F05F0546002092469B468846064626
:10073000814640241BE0284641464746224600F0B9
:100740002FF853465A46C01A914110D31146184605
:10075000224600F016F82D1A67EB01084F46224694
:100760000120002100F00DF817EB00094E41201E7A
:10077000A4F10104DFDC484631462A464346BDE881
:10078000F09F202A04DB203A00FA02F10020704793
:100790009140C2F1200320FA03F3194390407047BF
:1007A000202A04DB203A21FA02F00021704721FAC6
:1007B00002F3D040C2F1200291400843194670472D
:1007C000202A06DBCB17203A41FA02F043EAE07315
:1007D00006E041FA02F3D040C2F120029140084302
:1007E000194670472DE9F04791460F46804604466A
:1007F000002614F8015B2DB100F024F90068405D7B
:10080000C007F6D12B2D02D02D2D18D0641E4A46DC
:100810003946204600F01AF927B13968A14201D1C2
:10082000C7F8008071054FF002040BD54042002844
:1008300003DD17F067FB0460A007BDE8F08746F40E
:100840008066E4E70028F8DA17F05CFB04606FF0DC
:100850000040F2E70029A8BF7047401C490008BFCC
:1008600020F00100704710B4B0FA80FC00FA0CF0E0
:1008700050EA010404BF10BC704749B1CCF1200418
:1008800021FA04F411FA0CF118BF012121430843A5
:10089000A3EB0C01CB1D4FEA00614FEA102042BFD1
:1008A000002010BC704700EBC35010440029A4BFC7
:1008B00010BC7047401C490008BF20F0010010BC6C
:1008C000704710B5141E73F1000408DA401C41F1A2
:1008D000000192185B411A4301D120F0010010BDC4
:1008E0002DE9F04D92469B4611B1B1FA81F202E03A
:1008F000B0FA80F220329046FFF743FF04460F46DD
:1009000040EA0A0041EA0B0153465A46084313D015
:10091000114653EA010019D0C8F140025046FFF7D2
:100920003FFF05460E46504659464246FFF729FF0F
:10093000084305D0012004E020463946BDE8F08D8B
:100940000020054346EAE0762C4337430A986305C6
:10095000E40AA0EB08000022FD0A44EA47540A30EA
:1009600002D500200146E9E7010510196941DDE9DA
:10097000084500196941BDE8F04DA2E72DE9F04DA9
:1009800000231A461B1A8A4103DB00200146BDE8FA
:10099000F08DC1F30A52C1F3130141F480154FF0F9
:1009A000000BD10702D100186D41521E00270446EA
:1009B00040F2FF11384601EB620A3E46804602468D
:1009C00000204FF48011FFF7EBFEC2197141BB18F4
:1009D00046EB0100B4EB030C75EB000C04D3E41AF6
:1009E00065EB000517460E46241908F101006D411C
:1009F00080463428E3DDF91946EB0600091BA841BF
:100A000003D24FF0FF32134601E0002213461BEBE6
:100A1000070046EB0A51BDE8F04DFFF752BF00005A
:100A2000064C074D06E0E06840F0010394E807003B
:100A300098471034AC42F6D3FFF7AAFB50C0040825
:100A400070C0040800487047788904082DE9F05FF9
:100A500082460078002715468B460AF10104B94604
:100A6000302801D09DB113E014F8010B012778283C
:100A700003D0582801D045B10AE00DB1102D07D19F
:100A80000027102514F8010B02E0082500E00A25D4
:100A90000026B0460EE005FB080005FB06F1012725
:100AA00001EB10461FFA80F8B6F5803F00D3B94637
:100AB00014F8010B294600F018F80028EBDABBF116
:100AC000000F05D00FB1641E00E05446CBF8004083
:100AD000B9F1000F06D017F015FA02210160C81E07
:100AE000BDE8F09F48EA0640FAE73A2800D23038DD
:100AF00020F02002412A01D3A2F13700884201D31D
:100B00004FF0FF30704770B58C1810F8015B15F08E
:100B1000070301D110F8013B2A1106D110F8012B6F
:100B200003E010F8016B01F8016B5B1EF9D12B0794
:100B300005D40023521E0DD401F8013BFAE710F84A
:100B4000013BCB1A921C03E013F8015B01F8015B37
:100B5000521EF9D5A142D8D3002070BD2DE9F0472F
:100B6000446886B00546204602F0C2FAC76D009080
:100B7000D0F888A0D0F88060D0F86880B0F87C9079
:100B800007B13F68684602F025FBBAF1000F09D0B3
:100B9000DAF8043028469847002840F01A81DAF83D
:100BA00000A0F2E72B68172B00F0898018DC0F2BD0
:100BB00043D006DC0B2B00F0FA800D2B00F0BD803B
:100BC000FFE0112B1BD0142B40F0FB8001A9204625
:100BD00000F0E7FB02AB03CBEA6810605160F8E07D
:100BE000262B6FD005DC1E2B7AD0202B00F0B38093
:100BF000E7E02A2B13D0B3F5107F24D0E1E02046A4
:100C0000EE6802F075FA01903389012B02BFB0F84B
:100C10007C3043F48073A0F87C3001A8CFE02046FC
:100C200002F066FAEB68009013B1C0F8843002E07D
:100C3000D0F88430EB6068463EE0002F00F0C180C1
:100C40002046B847BDE02046D5F80C8002F050FAA7
:100C500006AFB0F87C6047F8140D384602F0BAFAD7
:100C6000EB68002B00F0B58098F80830CBB1330763
:100C700002D4204609F026F9204608F075F906F45A
:100C80008873B3F5887F40F0A48006F080039BB2A0
:100C9000002B40F09E8005224146204609F0B2F824
:100CA00097E0204602F024FAB0F87C30019023F45B
:100CB0008073A0F87C30384602F08CFA89E0C5F8E1
:100CC0000C8086E0EB68022B40F0838006A9049339
:100CD000272341F8143DA868039409F077FF78E0D2
:100CE000EF68012F24D1304608F0F0FE58B13046AD
:100CF00009F0E8F8304608F099FD88B139463046E9
:100D000008F01FF80CE0404609F030F9064620468E
:100D100002F0EEF90090C0F88060684602F05AFADE
:100D20000121204600F0D3FA002E52D1EE6050E0AF
:100D30005146204600F0CBFA4BE019F0080F40D1A5
:100D4000EB68DB68002B3CD01B7A002B39D02046A7
:100D500009F0B8F835E0EE689EB32146706809F0F6
:100D60007BFD80B1012120460DF008FB2146706813
:100D700009F061FD28B3204602F0BAF906AB7268AB
:100D800043F8140D0FE0514620460DF0F7FA2146C6
:100D9000306809F050FDA0B1204602F0A9F906AB79
:100DA000326843F8140DC0F88020184607E020464A
:100DB00002F09EF90090703002F008F9684602F0E7
:100DC00009FA2946204607F017FF10B1284608F017
:100DD00013FA06B0BDE8F087F0B5B0F90C50B0F9E1
:100DE0001070B0F90E60044689B01D44A369B0F9D3
:100DF0000A0006930E9B059363680493B4F90830C8
:100E00000393638A029300238DE80A0010443B4653
:100E10003246294600F002F809B0F0BD2DE9F0474E
:100E20008AB00E46DDF84C9098460546174603F00A
:100E300081FA189C394B029349F480530193603432
:100E4000129B00933146039443463A46284608F0E5
:100E50000FF9064600285BD002F04AF9DFF8C4A07B
:100E6000159904903022554607F0FEFF0DF1280831
:100E70000FCD58F8187D07F134040FC40FCD0FC4FF
:100E800095E80300179B84E803007B66149BA7F892
:100E90007C300024DAF82830FB65C7F88040FC6617
:100EA000C7F88840404602F095F905A9304600F0A1
:100EB00078FABDF91A10BDF91800BDF91E30BDF958
:100EC0001C200394164C02945B1A121A41F282748D
:100ED000013201940133009608F0CAF8DAF828309C
:100EE00004465B6830469847304602F001F90490AA
:100EF0008466404602F06EF942F2040309EA0303F5
:100F000013B9304608F046FA1699304600F025FA33
:100F100005F092F930460AB0BDE8F0875D0B000895
:100F2000D7160008CC0100202DE9F041044690B00E
:100F3000006800F0B5F9A54B666803F12C050028A0
:100F400018BF1D461C2E00F2A281DFE816F08D01AD
:100F5000A001A001A001A0012701A001A001A00102
:100F6000A001A0012700A001A0017A01A001A00119
:100F7000A0014101A001A00123001D001F002100CC
:100F8000A001A001A0012500EE6985E12E6A83E1A0
:100F90006E6A81E1AE6A7FE16E697DE11C232068A3
:100FA0000893079002F0A4F8036D059007A89847EE
:100FB000064605A802F00EF9012E11DDAB6802937A
:100FC0006B6801932B6800936269A16920693346BD
:100FD00005F024FD2769A3693744C6EB03082CE01C
:100FE000286804F020FC2169EA6960690A44013A32
:100FF00002F002FFA269E9696069511A013102F049
:10100000FBFE676920690137394602F049FF39461E
:10101000A06902F045FF686804F005FC20693946C4
:10102000013002F03DFFA0693946013802F038FF77
:101030002769A3690237A3F10208286804F0F3FBCB
:1010400042463946606902F0D7FE686804F0EBFB5F
:10105000606942463946013002F0CEFE6B6A022BCF
:101060000ADDA86804F0DFFB61696B6A0B44013B91
:101070004246023138461CE02A6A96421BDA67690A
:101080002369012E07F1020840F303813744F01869
:101090001A44013A3B46414602F0C4FFA369E8699D
:1010A000012EA3EB0000CCBF9A1B9A1E41463B4683
:1010B000013002F0B7FF6369E7692868012ECCBFF1
:1010C000F6189E1C013F04F0AEFB3A4631462069FB
:1010D00002F056FF3A463146A06902F051FFE76937
:1010E000686804F0A0FB2069023F3A4631460130AF
:1010F00002F046FFA0693A463146013802F040FF4F
:10110000EB69022B02DC2B6A022B1FDDAB6AE7695D
:10111000A868022BCCBFFF1A023F04F084FBEA69E7
:10112000022A07DD206902443B46013A314602307B
:1011300002F078FF2B6A022B08DDA269E869101A19
:101140003B46023A3146013002F06CFF286804F059
:101150006AFBA2692169E06902F04EFE686804F04A
:1011600062FBA2692169E069013A0131013802F0AC
:1011700043FEAE6A022E40F38A80A2692769E469C1
:10118000A868A2F10208023704F04DFBA11BA31EC0
:1011900042460131384602F045FF78E0B4F91000CC
:1011A000B4F91410B4F91820B4F91C302C69019466
:1011B000EC680094ADF81C00ADF81E10ADF82020CE
:1011C000ADF8223002F0B8FC61E000BFA4020020BC
:1011D0006369298BADF81E30A369226920685B1A08
:1011E0000A44ADF82030E369ADF82230ADF81C2098
:1011F00001F07EFF036F0590FBB1022004F08CFB31
:10120000059AB2F87C30C3F3C0030E3302EB8303BC
:10121000986804F008FB059B586B04F021FB059BC4
:10122000186F01F065FF059B0690B3F95A2007A9D6
:1012300002F076FB06A801F0CDFF05A801F0CAFF79
:1012400025E02369ADF81C306369ADF81E30A36951
:10125000ADF82030A868E369ADF8223004F0E3FA75
:1012600007A802F009FF12E0206801F041FF10AB6F
:10127000B0F85A2043F82C0D42F00C02A0F85A2086
:10128000184601F0A7FF206808F0C4FE04E000261D
:1012900002E0981C4746FBE6304610B0BDE8F081FE
:1012A00013B5044680B103F045F8204601F020FF55
:1012B00002ABB0F87C4043F8040D1846C4F3C004F8
:1012C00001F088FF04F0B8FF204602B010BD38B529
:1012D0000D46044648B103F02DF8294620460DF08E
:1012E0004DF8BDE8384004F0A7BF38BD2DE9FF41F7
:1012F00004460F4603F01EF854B3204601F0F8FEF2
:10130000C36D03909D6800F0C2F8064604A850F82B
:10131000043D5F6301F05EFF2B6801212046984782
:101320002B6807460321204698472B6800218046FA
:10133000204698470546204600F096F9204600953D
:1013400043463A46314600F01AF9204608F051FB70
:1013500004F072FF04B0BDE8F08137B50D460446D5
:10136000E8B102F0E7FF204601F0C2FE036F0090F3
:101370006846019301F02EFF294601A805F0ECFE16
:1013800058B1204601F0B4FE019B00900367684607
:1013900001F020FF204608F02CFB04F04DFF03B0C5
:1013A00030BD2DE9F04F87B00646894601F0A0FE1A
:1013B000C26D0390946801212268304690472268EC
:1013C00003218046304690472268022183463046FA
:1013D000904722680021824630469047009003984B
:1013E00009F0C6F80546039809F0C9F807460398BE
:1013F000448E04F02004A4B20CB1B0F9584000F0BF
:1014000046F803990246C86E18B1019208F0E3F954
:10141000019ABDF80010A9F8002092B21444013DD1
:101420000C44A9F80E10CBEB050B013F0139114418
:10143000A9F802000FFA88F80FFA8BFB2044CAEBD8
:10144000070AA9F80600A9F81210A9F80480A9F85B
:1014500008B0A9F80AA0A9F80C80A9F810B003A850
:1014600001F0B8FEB9F90C20049206AAB9F91010DF
:1014700042F8041D304604A900F03CF8049AA9F88B
:101480000C20059AA9F8102007B0BDE8F08F08B528
:10149000438E03F020039BB202463BB1B0F95400E7
:1014A00028B9506B02F0A4FE023008BD184608BDF2
:1014B00070B58AB006460C4601F01AFE0AABC26D42
:1014C00043F8280D1846956801F084FE0196032C18
:1014D0000BD8DFE804F002040608182304E0162302
:1014E00002E0152300E0172302936B6801A89847D8
:1014F0000AB070BD2DE9F74381460D46164601F04E
:10150000F7FD034602A8DA6D40F8083D9768B3F985
:101510000040B3F9028001F05DFE3B6800214846BF
:1015200098470746484608F005F8814620B34846E4
:1015300001F0DEFDB0F902300190C8EB03039F42D9
:1015400013D1836A1B0608D5B0F9003032681B1B23
:1015500093420ADC013B336007E0B0F904302A68AB
:101560001B1B9342A4BF01332B6001A801F032FE84
:10157000484608F089F8D8E703B0BDE8F0832DE9C4
:10158000F04F85B093460C4605469A4601F0B0FDF3
:1015900004AFC36D47F8080D9E68FFF778FF8146DA
:1015A000384601F017FE3368012128469847336812
:1015B000032107462846984733688046002128467D
:1015C0009847A145034606D15F4504D1D04502D1D5
:1015D0000E9A904245D02846019307F0ABFF019B3D
:1015E0000E9A00269B1AC4EB09040546B1460193E6
:1015F000CBEB0707C8EB0A089DB3284601F078FD3E
:10160000836A039003F42073802B02D0B3F5007F2C
:101610001FD124B122462146284608F0DFFA039B59
:101620009B6A1A0608D504FB1981019A284608F01E
:1016300099FA09F1010AD146039B9B6A9B0508D5DB
:1016400004FB0671019A284608F08CFA06F1010A9B
:10165000564603A801F0BEFD284608F015F80546D9
:10166000CAE705B0BDE8F08F70B586B0064601F058
:101670003FFD06AB846E43F8180DC56E184601F0A9
:10168000A9FD04B92DB301A93046FFF78AFEACB11C
:10169000BDF90A20BDF90810204608F033FABDF95B
:1016A0000E30BDF90A20BDF908109A1ABDF90C30A8
:1016B000591A01320131204608F0F8FC4DB1BDF94C
:1016C0000A20BDF90630BDF90810D21A284608F0E4
:1016D00019FA06B070BD2DE9F043456887B004469D
:1016E000284607F0EFFF814601F002FD034606A8F9
:1016F0005F6E40F8143D9E6CD3F8808001F06AFD67
:101700002368172B52D009DC0F2B14D002DC0E2BD0
:1017100033D045E0143B012B48D941E01F2B27D0A3
:1017200002DC1E2B19D03BE0222B37D0312B37D1D6
:101730000023E3603DE06FF070439E4204D03046EA
:1017400006F084FA01F09AFE9FB394E80F0002AE0F
:1017500086E80F000395304626E0E3684BB3B8F106
:10176000000F17D0454515D0404608F0ABFB20E0F0
:101770002146484607F040FA1BE0E3685A68002A11
:101780000EDD1B68092B05D00A2B09D1284608F06D
:101790001FFC0EE0284608F0E9FB0AE0E66008E0DE
:1017A00027B1C4F804902046B84702E0204607F06D
:1017B00023FD07B0BDE8F0832DE9F041D0F80C809F
:1017C00086B0044600200E46174604F03DF8054654
:1017D000B8F1000F05D098F8043013B140F00200C2
:1017E00001E025F0020004F02FF8216969B1012021
:1017F0006388228803900290E0680190A0680090BE
:101800000C6830463946A0471FE0DFF85080124B85
:10181000D8F800201B68527CE06821469847E18890
:1018200020B9012904BFD8F80030986B638822885A
:101830000590A0680490A088029101210390019175
:1018400000913046394605F0E5FD284606B0BDE872
:10185000F04103F0F9BF00BFB4010020C401002033
:1018600030B585B004AC002544F8045D009400F068
:10187000D9F805B030BD00002DE9F74F141A5D1AF4
:1018800054EA050706468846DDF8309004D103B0D7
:10189000BDE8F04F00F09EB985EAE57084EAE47196
:1018A000A0EBE570A1EBE47188420ADD21462C46ED
:1018B0000D4611461A460B463146012746468846D4
:1018C00000E0002784EAE471A1EBE471A1421FBFAC
:1018D00098466D423346644217BF164601231A46A6
:1018E0004FF0FF33002DD9F800B0DFF834A138D124
:1018F000DAF80030C7B19B7E8BB93146404603B061
:10190000BDE8F04F05F0F0BE0CF0B0FD30B9DAF8EC
:1019100000305B6E71195B68404698470135A542FF
:1019200005EB0B00F0DD18E0997E91B95B6E1B684A
:101930004146304603B0BDE8F04F18470CF096FD25
:1019400030B9DAF800305B6E41465B68F0199847B1
:101950000137A7420BEB0700F0DD0138C9F80000A2
:101960005AE0DAF80010897E4FF0020294FBF2F29E
:10197000B8BF5242B1B99146B346C6EB0B039C4285
:101980004ADB99FBF4F0DAF800305B6E40445B68A8
:1019900017B90146584600E0594698470BF1010B2C
:1019A000A944EAE7591C04BF04EB0B01C9F8001075
:1019B0000092B346C6EB0B029442D9F8000021DB3B
:1019C0001844C9F8000001930CF050FD019B98B930
:1019D000009A92FBF4F0404437B9DAF80020526ED6
:1019E00001465268584605E0DAF800200193526E2D
:1019F000526859469047019B009A2A440BF1010B0B
:101A00000092D7E75A1C04BF2418C9F80040D9F83F
:101A10000020D31AC9F8003003B0BDE8F08F00BF32
:101A2000C40100202DE9F04FDFF8A491D9F800405F
:101A3000247E012C87B00746884615461E4604D1F1
:101A4000109C0094FFF718FFBDE0821ACB1A52EAEF
:101A5000030100F0B880002AB6BF012100215242E4
:101A6000002BBCBF5B4241F002019A42BEBF104650
:101A70001A4603464FEA620000EB832393FBF2F31E
:101A8000524A4FEAA31EC3F38303C3F1100C02EBC7
:101A90004E00B8BF41F00401BCF1100F18BF02EBBB
:101AA0004E02B0F9220018BFB2F924200CFB00F05E
:101AB00018BF03FB02000830102390FBF3F04B0724
:101AC00048BFC0F58060CA0748BFC0F500608B07FB
:101AD00048BFC0F5805000F5806B584605F030FCDB
:101AE000013C00FB04FA584605F02EFCBAF1000F49
:101AF000B8BFCAF5007300FB04F0B5BF9B120AF52E
:101B000000735B429B120028BBBFC0F500708012BF
:101B100000F500704042A8BF8012002BCBBF591CBB
:101B20000222491093FBF2F1CEBF5B1003F1FF33A9
:101B300093FBF2F30028C8BF421C1FFA87FE89B24C
:101B4000D5BF0224521090FBF4F24010DCBF00F12C
:101B5000FF3090FBF4F00EEB0104ADF8084092B2B8
:101B60001FFA88F480B204EB020C241A9BB2ADF881
:101B70000E40ACB2C3EB0E0EE31AADF81030B3B2A8
:101B8000181A1A4421440023ADF81200ADF81410BD
:101B9000ADF8162004211A4602A8ADF80AC0ADF827
:101BA0000CE000F087F8D9F800305B7E1BB94146A5
:101BB000384600F00FF8D9F800305B7E1BB931468B
:101BC000284600F007F807B0BDE8F08FFCA904082C
:101BD000C4010020064B1B681A7E012A02D15B6EED
:101BE0005B681847013A022392FBF3F200F002B857
:101BF000C40100202DE9F04F40F2C32685B02C4FE0
:101C000056434FF47A7396FBF3F6022392FBF3F3F9
:101C100002FB023301933B685B6E144680461B68EF
:101C200002440125001B8946984708EB05030293EF
:101C300008F1FF3301360393B54235DC04FB04F3AE
:101C4000019A05FB05339A4218DAB44215DD029B6E
:101C5000C5EB030A039B03EB050B3B685B6E5A461F
:101C60001B6804EB0901504698473B685B6E5A4677
:101C70001B68C4EB090150469847013C3B685B6E0A
:101C8000C4EB080A04EB080B09EB05011B685A4674
:101C9000504698473B685B6EC5EB09011B685A4686
:101CA000504698470135C7E705B0BDE8F08F00BF43
:101CB000C40100202DE9F74F6F4F009305460191B5
:101CC000904643F6FF740023019A93420BDA05EB2A
:101CD00083020133B2F902209442A8BF144697420E
:101CE000B8BF1746F0E7654E33685B696BB1B3F96F
:101CF00006200099B3F90230521A9742A3EB010370
:101D0000A8BF17469C42B8BF1C46009B1C44009BC2
:101D1000C3EB04094F45C0F2AC80594A002313605D
:101D20009A46019B03F1FF3B019B9A455ADADA453B
:101D300005EB8A03B4BF0AF1010C4FF0000CB3F9B4
:101D400002304FEA8C0C05EB0C024B45B2F9021045
:101D500036D1494502D0534600201AE035F92AE031
:101D600035F90C003368C64440445B6E8645B8BF05
:101D700002461B68B9BF21467046724621461DE0E7
:101D800053B1013B05EB8302B2F902204A4505D16C
:101D900001308345F4DC22E05B46F3E7C9EB020245
:101DA000C9EB010192EA010F35F92A0050D43368DA
:101DB0005B6E00EB08021B682146104698470EE058
:101DC00049450CD002DB4B4545DD02E04B4506DBC7
:101DD00001E0494503DC8B4243DC4B4520DD0AF141
:101DE000010AA1E74FF000094846CA46244B1B6888
:101DF0009A4513DA234B33F91AB0B9F1000F07D023
:101E000033685B6E08EB0B021B6821464044984721
:101E100089F001090AF1010A5846E7E7013476E73B
:101E20004945DCDB35F92AE035F90C20C3EB090024
:101E3000CEEB02024243002AA1EB0303DBBF5810A2
:101E400000F1FF3002EB6302121A92FBF3F07044D0
:101E500008F078FFC3E78B42E4DD4945BFDC4B4522
:101E6000BDDB184635F90CE035F92A200B46014652
:101E7000DCE703B0BDE8F08F01C0FFFFC401002024
:101E8000DCF40120E0F4012008B50E4B186803F0E3
:101E9000BFFC0D4B186803F0C6FC012003F01EFDCB
:101EA000002003F029FD002003F036FD002003F0A0
:101EB000CBFC064B186803F0D3FC0020BDE80840BB
:101EC00003F0DEBCC0010020BC010020B8010020EE
:101ED00030B585B00446019100B302F02BFA2046DC
:101EE00001F006F904AB456E43F8040D184601F005
:101EF00071F9019801F0FCF804AB846043F8080D17
:101F0000184601F067F904220DEB0201284601F0A2
:101F100083F9204607F06DFD04F08EF905B030BD61
:101F200030B585B00446019100B302F003FA2046B3
:101F300001F0DEF804AB856E43F8040D184601F09D
:101F400049F9019801F0D4F804AB846043F8080D16
:101F5000184601F03FF904220DEB0201284601F07A
:101F60005BF9204607F045FD04F066F905B030BD89
:101F70002DE9F04F44680768014697B005462046B2
:101F800006F03AFEB7F5407F064602D120460BF038
:101F900009FD002E00F062822B680B2B00F0FE8101
:101FA00006DC052B40F0578220460BF0FBFC52E28A
:101FB0000F2B03D0262B00F03B824CE2EB680393FF
:101FC000204601F095F8436D0193C36D0293C36AF7
:101FD000D0F858A01B68D0F860B00D900EAE304617
:101FE000049307F045FA31460D9806F0F9FE96E89D
:101FF000030012AD85E80300BDF84A20BDF810309B
:1020000052441A44ADF84A20BDF84E2003EB0B01B0
:10201000521AADF84E20BDF8482001991A440A44DE
:10202000ADF84820029A1344BDF84C20D31AADF8FD
:102030004C3095E8030010AB83E80300184608F025
:1020400061F80D9B586B03F0E3FB01F017FA0D9B51
:10205000D3F8943013B10021204698470D9D95F890
:102060006C30002B00F08F8014A9204607F0B6FAE0
:10207000EB6A286C1B680593BDF950300693BDF9D7
:1020800056300793BDF9523008936F6CD5F84880ED
:10209000BDF9549003F0C7FB02F05CF809901FB93A
:1020A000B8F1000F4BD146E0B5F87830EE6CDB07A5
:1020B00058BFD5F88C303E4448BF00231E44B74279
:1020C00001DCF61BFBE795F87A0003F0D9FB029AD6
:1020D000019B1344069AC3F10103C2EB09094B4467
:1020E0000693019A059B13449946069BB342D7DD9C
:1020F000BDF95210BDF9563095F87A2009EB06006B
:102100005144CBEB03031AB1024601F0A3FE02E0F7
:102110001A4601F035FF3E44E7E795F87B0003F0EF
:10212000AFFB079A08990AEB0B07C7F10103571A8F
:102130001F44B7420DDC099803F0A2FB23E02E6D8B
:10214000D5F880304644F61AB045E6DCC8EB060602
:10215000FAE7019ABDF950000299BDF956301044D2
:10216000BDF95420521A95F87B10CBEB03039B1B4F
:1021700019B1194601F06EFE03E00146184601F060
:102180003BFE4644D5E7049A0EA912A804F0C2FF0C
:1021900012A807F0B7FF0D9B93F83B20002A00F030
:1021A0009E80019A42B9BAF1000F05D1029A1AB97C
:1021B000BBF1000F00F09380DA6A069314A9204661
:1021C000D2F8009007F00AFA07F06CFA049007F0D2
:1021D00071FA019BBDF95060BDF9547005901E4421
:1021E000029BBDF95280BDF95650FF1A069B986BB1
:1021F00003F00EFB069BD86B03F015FB019BD0444C
:10220000CBEB0505CBB15A1E039B0499B3F9003003
:102210004A445B1A9A4210DBBDF95630BDF95000B2
:10222000CBEB03030AEB0901013301F037F96A1C18
:1022300008F1FF31701E01F0A3FEBAF1000F17D0B4
:10224000039A0599B2F902200AF1FF334B44521A5E
:1022500093420DDBBDF95420BDF95210BDF9500079
:1022600001F01CF97A1C711E08F1FF3001F0C4FD69
:10227000029BCBB1BDF954200499D01A039BB3F94A
:10228000043001305B1A98420EDCBDF95630CBEBBE
:10229000030309EB0A01013301F000F96A1C08F19C
:1022A000FF31781C01F06CFEBBF1000F17D0039AD0
:1022B000BDF95630B2F906200598CBEB0301013188
:1022C000C0EB020A51450ADCBDF95420BDF95000AB
:1022D00001F0E4F87A1C711E681C01F08DFD0D9B65
:1022E000D3F8943013B101212046984710A807F085
:1022F00009FF0D9B586E01F005F800250746AF4217
:102300001AD00D9B2946586E01F00BF800F0F0FE34
:10231000149078B10668304600F0EAFE0C9030B1B7
:1023200003680399304698470CA800F053FF14A89F
:1023300000F050FF0135E2E712A807F0E3FE0D9B25
:10234000986E00F0DFFF00250746AF421AD00D9BC4
:102350002946986E00F0E5FF00F0CAFE149078B1AF
:102360000668304600F0C4FE0B9030B10368039954
:10237000304698470BA800F02DFF14A800F02AFF64
:102380000135E2E7002007F0BDFE0D9BD3F8943045
:1023900013B10221204698470DA846E0204600F0E0
:1023A000A7FE1290406E00F0ADFF00240646A64244
:1023B000129B18DD2146586E00F0B3FF00F098FE26
:1023C000149070B10568284600F092FE109028B174
:1023D000476810A800F0FEFE2846B84714A800F091
:1023E000F9FE0134E3E7986E00F08CFF0024054607
:1023F000A542129B0FDD2146986E00F092FF00F07F
:1024000077FE149028B1006800F0BEFD14A800F01B
:10241000E1FE0134ECE716AC586E00F04AFF54F8C8
:10242000103D986E00F045FF204600F0D3FE15E009
:10243000EB68052B0FD12046AE6807F073F9864292
:1024400005D02046AE6807F05FF9864203D1A9683F
:1024500068680BF043FD284606F0CEFE17B0BDE8D5
:10246000F08FF0B5B0F90C50B0F91070B0F90E6003
:10247000044687B01D44A369B0F90A000493B4F977
:1024800008300393638A029300238DE80A00104406
:102490003B463246294600F003F807B0F0BD000085
:1024A0002DE9F04186B00E4698460546174601F0E4
:1024B00041FF109C1C4B02930D9B01936C340C9BB1
:1024C00000933146039443463A46284606F0D0FD31
:1024D000064618B300F0EAFE054600F0E7FE0446A3
:1024E000304600F005FE4566104D846600220F99C7
:1024F000059006AF06F0B8FC0FCD57F804ED0EF1CD
:1025000034040FC40FCD0FC495E80F0084E80F000A
:102510000E9BAEF87830384600F05CFE03F08CFE7F
:10252000304606B0BDE8F081711F0008F8010020B8
:102530001FB50446ADF8061001F0FCFE204600F081
:10254000D7FD029068B1406A00F0D2FD0223014637
:1025500003900DF10602029800F076F903A800F04E
:1025600039FE02A800F036FE03F066FE04B010BD8E
:102570002DE9F74380460E4617461D4601F0DAFE68
:102580002C2000F0DBFC044620B3700000F0D6FCE9
:10259000814660B15FB155B100F0AAFD104B0190CA
:1025A0001B686A003946984701A800F013FE2046D0
:1025B00000F09EFD0B4B0190C3600B4B03600B4B77
:1025C000C0F82490C0F8188046610561436001A8F6
:1025D00000F000FE03F030FE204603B0BDE8F083BB
:1025E0008002002051D8000841DC0008D1DA000840
:1025F0002DE9F34180460F4616461C4601F09AFE2F
:10260000302000F09BFC0546C0B100F071FD4FF09A
:102610007E51816202AA0C49C46142F8040DC0F8DF
:10262000148087618684034600F10C0403C984E8A2
:10263000030006491960104600F0CCFD03F0FCFDD4
:10264000284602B0BDE8F0812802002023DD000802
:1026500010B52DED028B044682B0F0EE408AB8B181
:1026600001F068FE204600F043FD90ED0A8A0190DB
:10267000B4EE688AF1EE10FA04D0C0ED0A8A8068E0
:1026800007F0B7F901A800F0A5FD03F0D5FD01E0C2
:102690009FED038AB0EE480A02B0BDEC028B10BD7C
:1026A000000000002DE9F341884617461E46044607
:1026B000C0B101F03FFE204600F01AFD02AD089BBC
:1026C00045F8040D0366C0F854808765C665284642
:1026D00000F080FD20460BF065F9204607F089F9EF
:1026E00003F0AAFD02B0BDE8F08173B50E461446B2
:1026F0000546C0B101F01EFE284600F0F9FC032C8F
:10270000019009D800EB8402546BB44205D05663A3
:10271000284607F06EF900E0002401A800F05AFDF9
:1027200003F08AFD00E00446204602B070BD73B598
:102730000E46044690B101F0FDFD204600F0D8FCA5
:10274000456C0190B54203D04664204607F051F92C
:1027500001A800F03FFD03F06FFD00E005462846AC
:1027600002B070BD73B50E46044690B101F0E2FDB3
:10277000204600F0BDFC856C0190B54203D0866414
:10278000204607F036F901A800F024FD03F054FDBF
:1027900000E00546284602B070BD73B50E460446FB
:1027A000A0B101F0C7FD204600F0A2FC90F86C50EB
:1027B0000190B54204D080F86C60204607F019F90A
:1027C00001A800F007FD03F037FD00E005462846AC
:1027D00002B070BD73B50E460446A0B101F0AAFD6B
:1027E000204600F085FC90F87B500190AE4204D06A
:1027F00080F87B60204607F0FCF801A800F0EAFCB6
:1028000003F01AFD00E00546284602B070BD73B51E
:102810000E460446A0B101F08DFD204600F068FC94
:1028200090F87A500190AE4204D080F87A60204649
:1028300007F0DFF801A800F0CDFC03F0FDFC00E09C
:102840000546284602B070BD2DE9F0411E4683685A
:1028500004460D4617462BB30069636998420ED1B2
:10286000421E724331442846FDF73FFD206901387E
:102870003246394606FB0050FDF737FD0DE0431C9C
:1028800023613246394606FB0050FDF72EFDE36812
:102890001BB12046BDE8F0411847A068BDE8F041F3
:1028A00000F002B8BDE8F0812DE9FF41044600F0D8
:1028B0001FFC034604A8D3F8548040F80C3D9F6DDC
:1028C000DE6D1D6E00F086FC02A9204606F086FE35
:1028D000BDF80810BDF80C20BDF80E304144ADF82D
:1028E0000810BDF80A103944ADF80A10921B5B1BA2
:1028F00002A92046ADF80C20ADF80E3007F038F8EC
:1029000004B0BDE8F08100004D4B2DE9F04F1A688E
:10291000D169CC69A38983428BB008D8E589854207
:1029200005D325680695C31A4FF0FF3613E0A36858
:10293000002B7CD01D88A84279D35E88864276D34E
:102940005B6866680696401B80B203EB800533F92E
:102950002030B5F902600993581C68D091F818B07E
:10296000B2F92A90A17C364DB2F92270B2F92480D6
:1029700094F810A01BFB01F34846079305F0B6F945
:102980002968079BCA69896B0591089006991846C2
:10299000099B00FB03100490A37C03930123029383
:1029A000D37E0193937E009352465B464146384660
:1029B00004F030FD731C1AD049F0020005F096F9BE
:1029C0002A680699D369926B0592079A02FB06164C
:1029D0000496A27C039201220292DA7E01929B7EEF
:1029E000009352465B464146384604F013FD2B687F
:1029F000DB695A7E1B7E9A4215D9B9F1020F12D0BB
:102A000089F0040005F072F90D4B1B68DB69187E34
:102A1000D97E9A7E5B7E00FB018143440AFB0272F1
:102A2000384604F08BFE9DF8200005F05FF9044B5A
:102A3000617C1A68538C0B4453840BB0BDE8F08F53
:102A4000C4010020044B1B68DB69DB6909B11A7CF7
:102A50000A60587C704700BFC401002002230B802D
:102A60007047C3699A898A4202D8DA898A420FD2AA
:102A7000986880B1038899420CD342888A4209D36E
:102A8000C91A436833F82100C043C0F3C03070470F
:102A900001207047002070472DE9F04F384C236823
:102AA000B3F92A80DB6989B006460146D86900F08F
:102AB00040F9002860D005884768751B07EBC506FC
:102AC000404696F802A005F011F9D4F800C017F8B6
:102AD0003520DCF81CE0DCF838309EF818B0BCF982
:102AE00024108146BCF922000593736804934FF0CB
:102AF000010CCDF80CA0CDF808C09EF81BC0CDF895
:102B000004C09EF81AE0CDF800E05B4604F082FCB9
:102B10002368DB69597E93F818A00791514520D9A5
:102B2000B8F1020F1DD093F81BB001F0EFFA804608
:102B300001F0B6FA02F077FE23680799B3F924E0B2
:102B4000B3F92200DB6917F83550DA7E0BFB01E39D
:102B500005FB02020BFB0AE104F0F0FD404602F027
:102B600062FE484605F0C2F823687178DA69907E03
:102B70005A8C00FB01225A8409B0BDE8F08F00BFD7
:102B8000C40100202DE9F04F384D2B6885B0DB697A
:102B90000DF110095E7EDB7E49F80C0D002488469D
:102BA00016FB03F62746AA464FF00C0BB8F10108B6
:102BB0001DD4484603F016FA2B68DB690746014628
:102BC000D86900F07DF80028F0D003884268FB1A2D
:102BD0000BFB032393F902201B791A44DAF8003027
:102BE000DB699B7E5343002BC8BFE418DEE71FB1AF
:102BF000384604F03DF904442B68B3F92220B3F9B8
:102C00002430ADF80A30013B3344ADF80E30184B98
:102C1000ADF808201B68013A1444ADF80C401BB114
:102C20009B680BB102A8984701F070FA2B685B8D86
:102C30005B07044602D501F069FA01E001F030FAC1
:102C400002F0F1FDBDF90E30BDF90C20BDF90A10FE
:102C5000BDF9080004F072FD204602F0E4FD054BCA
:102C600001221A7005B0BDE8F08F00BFC40100203A
:102C700024F6012008F6012073B50E4C019023685C
:102C8000B3F92A60B3070D4602D10B4B1B68984776
:102C9000013D07D401A803F0A5F92368DB691B688F
:102CA0009847F5E7054B00221A7023685E8502B04D
:102CB00070BD00BFC40100206C02002008F6012096
:102CC00038B103888B4202D843888B4201D2806896
:102CD000F6E77047014B1860704700BF6C02002098
:102CE00038B50D4B1B68DD6902460C460146E869A4
:102CF00000F01FF870B10388D21A436803EBC201D9
:102D00004878A97E10FB01F024B113F8323011FB92
:102D100003F3236038BD00BFC401002001230B80F2
:102D2000704708B5C06900F004F8003018BF0120F2
:102D300008BD38B103888B4202D843888B4201D248
:102D40008068F6E7704700002DE9F047DFF86480FF
:102D5000DFF85890DFF858A00025D8F800309D42E1
:102D600017DAD9F80070DAF800107C266E43BC1927
:102D7000231D74221846FDF7B8FA0022BA5104F157
:102D80000C02A26104F10802E06322646064013570
:102D9000E3E70AF0B9FB054B1A687C2303FB00202C
:102DA000034B04301860BDE8F08700BF8CF40120AD
:102DB000C40100207802002070B50E4E0E4B0F4D5E
:102DC000304640F80C3F04F0B3F92C687C235C4398
:102DD000204600F009F90A4B306022461B680021AA
:102DE00098474FF0FF336B600DF09CF8BDE87040E2
:102DF0000AF08ABB8CF40120D9DB0008780200209D
:102E0000840200202DE9F04F2D4C2468257C87B0EA
:102E1000AD070190029103920493109FDDF8448066
:102E200043D4A36B1D68E36B264C1E6863689E4207
:102E300002D1A3689D4223D0284604F08BFD824630
:102E4000304604F087FDDFF88CB0C4F80CA0814652
:102E50000124E2B2DBF80030514648469847194B4E
:102E600003F10C0242F8240001340F2CF1D1164872
:102E7000C3F84890059304F037FD059B5E609D60A4
:102E80001248BDF80C300382BDF810304382104B5D
:102E9000029A1B7801998782C0F81880037210305B
:102EA00007B0BDE8F04FFEF787BC084CCDF8448072
:102EB00010972468A44607B0BDE8F04F604700BFF4
:102EC000C401002090F301204402002040020020B1
:102ED00008F601203003002073B505460C46C1B149
:102EE00001F028FA204600F01BF8064668B100F011
:102EF000FFF801900DB1084B00E0084B1B6822461B
:102F00002946984701A800F065F903F095F9304685
:102F100000E0084602B070BD80020020840200205C
:102F200010B5044638B101F005FA204607F07CFFE1
:102F3000044603F081F9204610BD000073B5054634
:102F400001F0F8F92846FFF7EBFF064660B100F004
:102F5000CFF802AC074B44F8040D1B682A46002149
:102F60009847204600F036F903F066F9304602B083
:102F700070BD00BF84020020024B21F003011860E5
:102F80005960704774F2012010B5044680B101F019
:102F9000D1F9084B5B6B03EBC4035968486807F031
:102FA000F1FE20460BF046F9BDE8104003F044B9AD
:102FB00010BD00BF38F5012028B1034BDA6B026069
:102FC00002B15060D863704738F5012010B504464F
:102FD00001F0B0F92068FFF7D7FF00232360BDE8B8
:102FE000104003F029B900002DE9F0410746264EB4
:102FF00003370AF0A9FB27F00307306CF26B0437A4
:10300000874238BF0746144634B154F8043C9F4207
:1030100023682CD01C46F7E7F368B26B02EB030879
:1030200058F8045CC5EB08052B6833B120460BF05B
:1030300033F958F8045CC5EB08052B680BBB6B68CB
:103040009F421EDC28461C1D0BF006F9F3686868D9
:10305000DB1BF3607369E41B3B44C01B2C447361AE
:1030600002D0294607F08EFE44F8047C09E00BB13B
:1030700061685960616801B10B60A24201D12368A7
:10308000F3632046BDE8F08138F5012008B50AF069
:103090005BFB0C4A00239918D1F8BC0010B183687F
:1030A00000200BE0083B13F1800FF4D108E05A68D0
:1030B0009B68904238BF104613B19B68002BF6D135
:1030C0000C3808BD38F5012030B1044B5B6B03EBC5
:1030D000C000436858680C38704700BF38F50120BD
:1030E000024A936901339361704700BF38F50120AC
:1030F000054BDA690132DA615A6B12F8303001336C
:1031000002F8303000F07EB838F5012073B504467F
:1031100008460D46FFF704FF064618B314B32046D1
:10312000FFF7D2FF8542A8BF054601F003F93046FC
:10313000FFF7DEFF00902046FFF7DAFF2A4602ADD8
:103140000A4B0190014655F8080D1B689847284620
:1031500000F040F801A800F03DF82046FFF714FF0A
:1031600003F06AF8304602B070BD00BF8002002054
:1031700010B501F0DFF8FFF789FF0A4BB0F5800FBB
:103180008CBF1B6A1B6A4FF0640487BF90FBF4F08E
:1031900003FB00F45843B0FBF4F403F04DF8204671
:1031A00010BD00BF38F501201028054A05D9536825
:1031B0005B08984228BF184600E0102090607047D6
:1031C00074F20120024A9369013B9361704700BF8A
:1031D00038F5012030B50368094953F8085C4C6B99
:1031E00014F83530012B03D9CA690AB1013ACA6112
:1031F000013B04F8353000230360184630BD00BFA2
:1032000038F50120034B5B6B03EBC00040680830CE
:10321000704700BF38F501202DE9F7430B460746FC
:1032200000283CD042B111461846FFF755FEB0FACF
:1032300080F40546640901E0144615463846FFF758
:1032400057FF02AEB0F8008046F8080DD0F80490A1
:103250003046FFF7BFFF24BB08F101014846890053
:10326000FFF754FF814618B92846FFF78DFE18E096
:10327000FFF73EFF02AB43F8040D40F82850184614
:10328000FFF7A8FF3846FFF733FF038800900133AC
:10329000C0F8049003803046FFF79CFF02E004462C
:1032A00000E00124204603B0BDE8F0830820FFF7CA
:1032B00045BE37B5054618B3FFF71AFF00904068C2
:1032C000C0B1FFF715FF00240190009B1B889C42B2
:1032D00006DA019800EB8400FFF778FE0134F4E78A
:1032E00001A8FFF777FF00980430FFF76FFE009BFF
:1032F00000221A806846FFF76DFF2846FFF744FE5C
:1033000003B030BD13B5044640B1FFF7F1FE02AB88
:10331000048843F8040D1846FFF75CFF204602B00E
:1033200010BD73B50E46044658B1FFF7E1FE02AD7D
:10333000314645F8040D00F007F804462846FFF72B
:1033400049FF204602B070BD03888B4213B50C467E
:103350000ED9406850B1FFF7CBFE02AB50F82440C5
:1033600043F8040D1846FFF735FF02E0044600E07D
:103370000024204602B010BDB0F1004FF0B51C682B
:1033800009D1601C186001392D202070C9B26FF07E
:10339000004001260EE00028BFBF651C1D602D25E2
:1033A0002570ACBF00240124A1EB0401B8BF40424A
:1033B000C9B200260AB10139C9B2DFF858E0DFF816
:1033C00058C081B14D1E9142EDB205D11C68671CF9
:1033D0001F609EF8007027705CF8257090FBF7F472
:1033E000E4B20A2C03D91B6800221A70F0BD07FB57
:1033F000140015B90EB10134E4B20A2C08BF0D4611
:10340000196808BF01244F1C30341F600C70294616
:10341000D7E700BFFCF50120C4A90408002807DD98
:103420000B685A1C0A602B221A700B6800221A7053
:103430007047C3B2CAB29A1A92B210B514B2002C35
:10344000BCBF524214B2C0F30723C1F307229B1A38
:103450009BB2090C1AB2C1EB1041002A89B208B222
:10346000BCBF5B421AB20028BCBF494208B25243FB
:1034700004FB042280B200FB002010BD10B5002127
:10348000084600F0C9FE044943F6FF731A46084691
:10349000BDE8104000F002B801C0FFFF2DE9F34184
:1034A00016461F4604460D4600F044FF042004F073
:1034B0001DFC144B1B69DA6C1B6D804614441D44C3
:1034C00016441F446846ADF80040ADF80460ADF8FE
:1034D0000250ADF8067007F059F838B9404604F0CC
:1034E00005FC02F0A9FE02B0BDE8F0813B46324681
:1034F0002946204604F022F906F050FF0028F5D1B5
:10350000ECE700BFB40100202DE9F34705468846EB
:1035100014461E4613B905F0DBFF064600940B9BCC
:103520002C680A9A31462846A0470446002840D015
:1035300005F0C1FF698A0746204605F002FC2046D7
:1035400006F0F0FD384606F0EDFD4FF0000908F1F9
:10355000FF38B8F1000F12DD55F81CAFCDF8009020
:1035600000231A4639462846D047824620B92046CD
:1035700005F07EFE50461DE006F0D4FDE7E71D2174
:10358000384606F0FEFB731C13D000F0D3FE05F0A6
:10359000EBFF50B1FFF736FE8069844207D0002868
:1035A000F8D1204606F0E2FC01E0A642F9D102F093
:1035B00043FE204602B0BDE8F087000080B582B02F
:1035C00000AF7860054B1B68002B03D0034B1B68D2
:1035D0007868984700BF0837BD4680BDF8F50120E0
:1035E000012BF8B506460D4617461C4601DD0020A6
:1035F000F8BD1C20FFF7F8FC0028F8D00DB10561DC
:1036000009E0094B53F8241029B10B680BB1194696
:10361000FBE70B6903610023836084618782C660D6
:1036200003604360F8BD00BF14F6012038B51D46A5
:10363000FFF7D6FF044648B100F00EF8E3681B68B8
:1036400023B9034B16351B6843F82540204638BD87
:10365000C4010020FFF7B0BC30B508B9012030BD6F
:103660008469012CFADC1B4B1A789442A4BF621CBB
:103670001A70194A52F8243015461BB942F8240032
:10368000184630BD5A680AB11346FBE7C268126893
:10369000D9680968914203DD1B68002BF8D1DDE78A
:1036A00009D1818A012906D1196821B10B46C9685F
:1036B00009688A42F8DD5A6812B11060426001E080
:1036C00045F824005860984208BF0023036000209A
:1036D00030BD00BF10F6012014F6012010B520B156
:1036E0000468FFF7B9FF2046F9E710BD81690A4A6F
:1036F00052F821309842036804D142F821300BB1CE
:1037000000225A60426802B11360036803B15A6034
:10371000002303604360704714F6012000207047C7
:10372000012809DC054B53F8200020B1C3681B6851
:103730001BB10068F9E770470020704714F60120BC
:103740002DE9F84305460CF0D7FBDFF85880DFF889
:10375000589005440CF0D0FB2E1A002E1FDD00F00F
:1037600037FCD8F800309E42A8BF1E4600F0E2FDAC
:10377000D9F80040FFF7B4FC27461FB102F05CFD0A
:10378000013FFAE730460CF0B3FB1CB100F0D2FD6C
:10379000013CFAE7FFF716FD02F04EFDDAE7BDE85F
:1037A000F88300BFC801002090F401201FB504ABCE
:1037B00001AC43F8104DFFF7DFFD204600F020F884
:1037C00004B010BD002107F0E1BEF0B585B004AD36
:1037D00001AE45F8106D0C4629461746FFF71EFE50
:1037E0000028C4BF04F1FF34E4B22B463A46214618
:1037F000FFF7C2FD304600F003F805B0F0BD000051
:103800002DE9F04F054685B0002800F08480434C38
:1038100000F090FD00F086FC23680746B3F9228093
:1038200000F0C8FC2268938C86B29B1B9384A1464F
:103830002B78002B61D047F6FF71284603F0FCFA85
:1038400001468246284603F0C7FA2268938D03F0AA
:103850000303012B04D0022B04D190FBF3F302E00D
:10386000034600E00023518CCB1A9BB219B21FFA19
:1038700080FB5184ADF80810B2F92420ADF80A207D
:103880000BF1FF310B44ADF80C30013ABBB21A44D6
:10389000ADF80E20514602AA2846019302F0D6FE4A
:1038A0002268BDF80A1091842846514602F0AEFB0A
:1038B0002A5C019B0A2A05EB000E01D00D2A12D1C9
:1038C0002268918D01F00301013901298ABF118C11
:1038D000A2F8228051849EF800100A290AD1918C06
:1038E0000B44938406E0BDF80800D9F80030834407
:1038F000A3F822B09EF8003053B923689A8C16447E
:103900009A8D9E8422F003029A8502F095FC02E0D3
:103910000EF101058CE705B0BDE8F08FC401002071
:1039200047F6FF73AFF300802DE9F3410C461746CD
:1039300098460646E0B100F0FDFC6CB1204606F06A
:10394000E1FB054648B102462146684603F0CEFA3F
:10395000684606F0D7FB00E0254643463A46214636
:10396000304602F0C7FE284606F0CCFB02F064FCAD
:1039700002B0BDE8F0812DE9F04F8BB00D4617463F
:1039800003930646002800F09A8000F0D3FCB5F9B6
:103990000030B5F904900193C3EB09030133B5F985
:1039A0000240B5F906B0029300F0BCFB17F00C081A
:1039B00082461ED0039A0299304602F047FCB8F1C5
:1039C000080F05D0B8F10C0F09D0B8F1040F10D1D1
:1039D0000BF1010410FB0AF0201A04B209E0C4EB59
:1039E0000B03013300FB1A30022390FBF3F0044475
:1039F00024B2284606F086FB804688B1BDF8043024
:103A0000ADF818300246294606A8ADF81A40ADF8C0
:103A10001C90ADF81EB003F069FA06A806F072FB20
:103A20001FFA8AF30493013B059307F00307039AF7
:103A30000299304603F0D8FBBDF80430ADF82030D1
:103A4000059BADF822401FFA84FB5B440146824689
:103A50003046ADF82490ADF8263003F0BDF9012FC3
:103A600011D0022F04D09FB92B88ADF820300FE081
:103A7000B5F90020B5F904309B1A181A013090FBF3
:103A8000F7F0104402E0AB880133181AADF82000BB
:103A9000304608AA514602F0D9FD3046039A0299F1
:103AA00003F098FB049B064403EB0B04337824B229
:103AB000002BBCD1404606F025FB02F0BDFB0BB04D
:103AC000BDE8F08F2DE9F04387B005469146984652
:103AD0000C4600F02FFC164B1B68DA6C1B6D15446E
:103AE0001C449144984404A8ADF81050ADF81490CB
:103AF000ADF81240ADF8168006F048FD20B902F08E
:103B00009BFB07B0BDE8F0830A4E00270F9B019393
:103B10000E9B009342464B46294620460397029649
:103B200008F090FE06F03AFC0028EFD1E7E700BF6E
:103B3000C4010020E97600082DE9F04387B004466F
:103B4000904699460D4600F0F5FB164B1B68DA6C63
:103B50001B6D14441D449044994404A8ADF81040D2
:103B6000ADF81480ADF81250ADF8169006F00EFDC9
:103B700020B902F061FB07B0BDE8F0830A4E0127CF
:103B80000F9B01930E9B009342464B4629462046CD
:103B90000397029608F056FE06F000FC0028EFD1CD
:103BA000E7E700BFC4010020397600082DE9F04F97
:103BB0008FB0904C08901D461A9BDDF860A0DDF890
:103BC000649006938B46164600F0B4FB21680020F3
:103BD000D1F84C800F6D06F0D9FC20B90FB0BDE8CC
:103BE000F04F02F029BB08EB06030193089A0C94EE
:103BF0000BF10043013B02EB43030793069B002BB1
:103C000014BF6FF0010302232F440A93BAF1000F8F
:103C100004D106F0C3FB0028F8D1DFE7B9F1000FAB
:103C2000F7D0BBF1000FF4DDBAF1FF3F05D1B9F1D8
:103C3000010F0CBF012202220DE0BAF1010F05D1E4
:103C4000B9F1010F0CBF0022032204E0B9F1010F0A
:103C50000CBF042205220C9B1B68596941B3B1F9C2
:103C60000230B1F900500293B1F906300493019B80
:103C7000013DAB42B8BFED1AB1F904300199594486
:103C800001F1FF31B4BF25EAE57500259942C4BFB3
:103C900001995B1A0699CCBF01335B4619B90899A3
:103CA00001EB450100E007990391AB420CDCB0E762
:103CB000069B002B00F09780079B03934FF0FF308B
:103CC0005B46029004900D4601990B440B9300262D
:103CD000531E0D444FF0010805960993039B0A9A61
:103CE000B3F900401344039347F6FF739C420AD193
:103CF000059B002B6DD1B8F1000F6CD13146681EC9
:103D000003F0C2FC67E0099BB8F1000F1CD0042B44
:103D100018D8DFE803F00305070B0F003E1B0EE089
:103D20003C1B00E03C44B4FBF9F608E03C440AFBD1
:103D300004F604E03C440AFB04F6B6FBF9F64FF047
:103D400000084AE0E619FAE7042B14D8DFE803F08C
:103D50000305070B0F003C1B0EE03C1B00E03C443E
:103D6000B4FBF9F408E03C440AFB04F404E03C44EE
:103D70000AFB04F4F4E73C44029B9E4201DA9C42B5
:103D800022DB049BB34201DA9C421DDCB44204EB0B
:103D900006034FF0020205F1FF3093FBF2F308DB5C
:103DA0001A4631460D9303F09FFC0D9B224619469F
:103DB00007E0194632460D9303F096FC0D9B214611
:103DC0001A46284603F090FC059B013305932646CE
:103DD00003E0002305934FF001080B9B0135AB4234
:103DE0007FF47CAF15E74FF0FF315B460291049101
:103DF000069D54E7C40100202DE9F341144F80468D
:103E000016460C4600F096FA3D682A6DEB6C08EBFE
:103E100002051C441E4468462BB2ADF80040ADF8C4
:103E20000460ADF80230ADF8063006F0AFFB20B903
:103E300002F002FA02B0BDE8F0813B685B6E3246E8
:103E40001B6829462046984706F0A8FAEFE700BF0E
:103E5000C40100202DE9F84380461E460C46154655
:103E600000F068FA0D4B1B680020DF6CD3F850900F
:103E700006F08CFB18B9BDE8F84302F0DDB94E44FA
:103E80003D444C4433462A46214607EB0800FDF7E3
:103E9000E7FC06F083FA0028F4D1ECE7C401002027
:103EA00073B5124E04460D4600F044FA3368DA6CDE
:103EB0001B6D14441D4423B2ADF80430ADF800303E
:103EC00068462BB2ADF80630ADF8023006F05EFB66
:103ED00018B902F0B1F902B070BD33685B6E2946C3
:103EE0005B682046984706F059FAF1E7C4010020C4
:103EF0002DE9F74306461F468846914600F01AFA18
:103F00001E4B1C68206DE56C247E013CA4B22E443F
:103F1000331B4D4480440744ADF800306319ADF8BD
:103F200004306846C4EB08033C44ADF80230ADF8F9
:103F3000064006F02BFB20B902F07EF903B0BDE885
:103F4000F08308F1010407F1FF392A464146304663
:103F500003F072FB2A463946304603F06DFB4A46B1
:103F60002146304603F0C0FB4A462146284603F06E
:103F7000BBFB06F013FA0028E7D1DDE7C4010020FF
:103F800073B5044616460D4600F0D4F90F4B1A6877
:103F9000D36C126D1C4423B2154416446846ADF828
:103FA0000030ADF80430ADF80250ADF8066006F010
:103FB000EDFA18B902F040F902B070BD3246294658
:103FC000204603F091FB06F0E9F9F2E7C401002076
:103FD00010B5002400F006F808B10124FAE72046E5
:103FE00010BD00000C4B10B51C681CB1A047041C90
:103FF00018BF012405F0E2F9084B1B68002818BF20
:1040000001241BB19847002818BF0124044B1B68EA
:1040100003B19847204610BD38F601203CF6012038
:1040200034F60120F7B5044616461F460D4600F04B
:1040300081F9104B1B68DA6C1B6D14441D44164447
:104040001F446846ADF80040ADF80460ADF802507A
:10405000ADF8067006F09AFA18B902F0EDF803B060
:10406000F0BD3B4632462946204603F067FB06F08A
:1040700095F9F1E7C4010020B0F90630B0F9042049
:10408000B0F90210B0F90000FFF7CCBF034B53F8B2
:104090002000C36808219B6A184700BF14F601205E
:1040A00010B500F047F903F079FB03F053FC044628
:1040B00002F0C2F8204610BD10B5044600F03AF9EF
:1040C000054B1B68DB6900215B6820469847044666
:1040D00002F0B2F8204610BDC401002038B50446F5
:1040E0000D4600F027F9064B1B68DB6929465B6823
:1040F00020469847044602F09FF8204638BD00BF8E
:10410000C401002008B105F0B3B9704710B500F044
:1041100011F903F04BFB03F01DFC044602F08CF890
:10412000204610BD10B500F005F9044B1B68DB6993
:104130005C7E02F081F8204610BD00BFC401002063
:1041400010B500F0F7F802F03DFE044602F074F8F6
:10415000204610BD10B500F0EDF8034B1B689C7EA7
:1041600002F06AF8204610BDC401002038B50546AB
:104170000C4600F0DFF8064BB3F900302B60054B1E
:10418000B3F900302360BDE8384002F055B800BFF5
:10419000FEF5012000F601200BF0AEBE04483523E9
:1041A000037034238370C37061230371704700BFB1
:1041B0006402002010B500F0BDF80C4B1A68938D16
:1041C00003F00C03082B07D00C2B05D0042B07D1D0
:1041D000D3691C7E013C04E0D3691C7E640800E0C6
:1041E000002402F029F8204610BD00BFC4010020C1
:1041F000027EC07E50437047024B53F820301B694B
:104200001868704714F60120024B53F820301B69E0
:104210005868704714F6012038B505460C4600F082
:1042200089F8044B1B685D849C8402F005F800202B
:1042300038BD00BFC401002090B583B000AF344A40
:10424000334B1B6823F001031360324B01221A60C9
:1042500000BF304B1B68002BFBD12F4B2F4A1A603D
:104260002D4B1B682E4A934200D0FEE702F0D8F88F
:104270002C4B2E221A700BF041FE2B4809F024FA29
:104280000AF0BCFB786003F00DFB0346002B0CBF6B
:1042900001230023DCB203F019FB0346002B0CBF03
:1042A00001230023DBB22343DBB2002B09D003F050
:1042B00002FB044603F013FB03461946204603F0B5
:1042C0000FFD0021002001F0E9FA05F0D9FAFEF710
:1042D0003BFD164B1B68002B12D00DE0134B1B68E7
:1042E0001B68002B03D0114B1B681B6898470F4BB2
:1042F0001B685B680D4A13600C4B1B68002BEDD1EB
:104300000B4B01221A707B6818460C37BD4690BDD6
:10431000002000E00830024000300240C2A507F44F
:10432000CDB5E8B5FCF5012088F2012000F30120AD
:1043300009F601202DE9F041194C636823B10BF017
:10434000D9FDA368984204D00BF004FE0BF0D2FD17
:10435000A0606368DFF848800133012B63601CD1E3
:1043600009F0D2F80F4A536898420746164614D00F
:10437000002B11DBD8F800507C2404FB0355FFF719
:10438000CDF9D8F80030A86704FB0734064BA06FBE
:10439000221D1A60FFF7A2F97760BDE8F08100BF27
:1043A0008CF4012078020020C401002030B580EA9E
:1043B000E071094CA1EBE0710022531C0A2B05D0DF
:1043C00054F823508D4201D81A46F6E70028B8BFAA
:1043D000931C184630BD00BFC4A9040813B5044699
:1043E00018B9104B1B681C6ED4B1FFF7A3FF204611
:1043F000FEF77EFE02AB446943F8080D1846FEF74F
:10440000E9FE5CB12046FEF773FE02AC836844F817
:10441000040D9B6898472046FEF7DCFE01F00CFF78
:1044200002B010BDC4010020014A114600F002B8DC
:1044300001F0FFFF2DE9F0430C4685B01546064616
:10444000002845D0FFF776FF002001F0FDF9224B50
:104450001B6807463046D3F86080FEF749FE0368C4
:104460000190986901F0B8F9019A1C4B9C4213899C
:1044700004BFB2F90440B2F90650ADF80840013B60
:104480002344ADF80C305389ADF80A50013B2B445E
:104490008146ADF80E3004F017FD01A8FEF79AFE34
:1044A00002A806F073F858B9484601F095F940465D
:1044B00000F0ACF9384601F0C7F901F0BDFE07E0A5
:1044C0002A462146304600F07FFB05F067FFEAE709
:1044D00005B0BDE8F08300BFC401002001F0FFFF7C
:1044E0002DE9FF470C9D07469A4688469146FFF7FF
:1044F00021FF194B1B68587C184B53F82040E36888
:104500001B68042B06D02468002CF8D1FFF708F9AB
:104510000446E8B1E3680121DB6A20469847064675
:1045200098B12469A3689847013008BF0C4C0294E5
:1045300008BF45F001058DE8600053464A464146F4
:10454000384600F0FBF9044600E0044601F074FE32
:10455000204604B0BDE8F087C401002014F6012015
:1045600044B7040837B50446F0B1FFF7E3FE0F4B3C
:104570001B681B6E9C4201D101F020F92046FEF71A
:10458000B7FD0190406908B101F03CFE02AD55F85D
:10459000043D1868FFF75EF82846FEF71BFE20462C
:1045A000FEF7F2FC01F048FE03B030BDC40100206C
:1045B0002DE9F04F87B00646039298460291FFF727
:1045C000B9FE544B1A68547C534A1257012A2046AC
:1045D0009B4606DD03F06CF98146204603F07CF92A
:1045E00005E003F04DF98146204603F04FF90446FB
:1045F00036B305A904A8FFF7B9FD049A059BB6F9DF
:104600000070B6F90250914409F1FF321C44B6F92A
:104610000490B6F9063027EAE77725EAE575013C0C
:104620004A45D4BFC7EB0209C7EB09099C42D4BF76
:10463000C5EB0404C5EB030409F10109013401E0F1
:1046400035463746B8F1000F01D1C4F10008B9F181
:10465000000F01DD002C03DC01F0EEFD002055E031
:10466000109B00934A46434629463846FFF738FFD9
:10467000064630B90398029B984701F0DDFD012002
:1046800044E000F07DF88442804606D0DBF800303C
:10469000986C10B1322106F0B7FA304600F0B6F847
:1046A000A2464FF00009D04503DD5146304600F0E8
:1046B00091F8B9F1000F08D0304605EB09023946F0
:1046C00000F0CEF83046FFF789FE029B039898472A
:1046D000124B1B680BB1FF2098473046C144FFF7CF
:1046E000A3FE4C45C8EB0A0ADDDC3046FFF73AFF73
:1046F000002000F08BF84445AED0DBF80030986C19
:104700000028A9D0332106F07FFAA5E707B0BDE85D
:10471000F08F00BFC401002012F60120CCF401206C
:1047200037B5044698B1FFF705FE2046FEF7E0FCDA
:10473000036802AD1B6945F8040D9B68984703F0B8
:10474000B0FC04462846FEF745FD01F075FD204605
:1047500003B030BD13B5044670B1FFF7EBFD204642
:10476000FEF7C6FC02AB00F1180443F8040D18462E
:10477000FEF730FD01F060FD204602B010BD0000E4
:1047800013B50446FFF7D6FD1CB90A4B1B681C6E17
:1047900054B12046FEF7ACFC02ABB0F90A4043F836
:1047A000040D1846FEF716FD01F046FD204602B046
:1047B00010BD00BFC401002038B5054605242846B9
:1047C00006F090FD10B9013CF9D138BDBDE8384084
:1047D00000F078B837B50D46044618B90A4B1B6887
:1047E0001C6E7CB1FFF7A6FD2046FEF781FCB0F9F8
:1047F0000A300190AB42C8BF458101A8FEF7EAFC30
:1048000001F01AFD03B030BDC4010020F7B5064623
:10481000FFF790FD114B1A681C46176E16B900F091
:10482000CDFF16E00FB100F0C9FF04F0D5FC304613
:10483000FEF75EFC02AD236845F8040D1E660068B5
:10484000FEF70AFF2846FEF7C5FC03F0EDFA03F079
:1048500027FA01F0F1FC384603B0F0BDC401002096
:1048600073B50D461446064618B9154B1B681E6EE7
:1048700026B3FFF75FFD3046FEF73AFC24B22DB2B7
:10488000C4808580009003F00BFA009B586980B1CA
:10489000FEF72EFC009B0190B3F90820B3F90A3013
:1048A0008280C38012B10BB10580448001A8FEF75D
:1048B00091FC6846FEF78EFC01F0BEFC02B070BDB4
:1048C000C4010020014A114600F002B801F0FFFFC8
:1048D0007FB50C461546064660B3FFF72BFD304604
:1048E000FEF706FC144B01909C42038904BFB0F90B
:1048F0000440B0F90650ADF80840013B2344ADF840
:104900000C304389ADF80A50013B2B4401A8ADF8A7
:104910000E30FEF75FFC02A805F038FE10B901F07A
:104920008BFC07E02A462146304600F031F905F0BD
:1049300035FDF3E704B070BD01F0FFFF2DE9F04F46
:10494000464D87B01C462B68109F5B7C81468A468B
:104950009046129911980022FEF742FE03950646F2
:1049600080B303699B68984703F09BFB00FB08F545
:104970000290FEF7FDFB17F0010708BF042305F1C5
:10498000070504BF90FBF3F000EB4000002C4FEA5A
:10499000D50544DC1DB11838B0FBF5F000E0284621
:1049A00064428442A8BF044677B900972346424632
:1049B0005146484601F0A8FB002C834639DC3046BE
:1049C000FEF748FE002046E0002CF8DD05FB04F071
:1049D0001830FEF7A5FA07460028F0D04FF0000B7C
:1049E0003846FEF785FB034606A8029A40F8043DC8
:1049F000A3F804901E60A3F806A0A3F808805C81C9
:104A0000DD601A61C3F814B0FEF7E4FB129B33615A
:104A1000039BB7601B685B7CB36138461BE0002FCB
:104A2000D4D10097234642465146484601F06CFBDC
:104A3000834605FB04F01830FEF780FA074600288D
:104A4000CED13046FEF706FEBBF1000FBAD0584675
:104A5000FEF79AFAE1E707B0BDE8F08FC401002045
:104A60002DE9F047454D464BD5F800E0454E9EF800
:104A70001140D6F800C053F824408CB00746059189
:104A800004922369BCF1000F12D0E268DEF86010D6
:104A9000126819B9B2FA82F2520905E0072A04D065
:104AA000394A991A4A424A412AB9049A059938461C
:104AB00009F0E4FD5FE03846FEF71AFB03460CA858
:104AC000B3F9084040F8083DB3F90A90D3F80C80D8
:104AD000FEF780FB08AB06AA05A9204606F0D6FA29
:104AE000069B002B47DD09AB07AA04A9484606F040
:104AF000EFFA079B002B3EDD3846FFF72BFE099BA4
:104B0000089F03FB04772B6800EB8707186E28B318
:104B1000DDF81490049DFEF7EBFA04460CA8B4F9F6
:104B20000630D4F80CA040F8044DED1AB4F9043066
:104B3000C3EB09094FEA89090AFB059518352C448E
:104B4000FEF748FBBCB1CDF80480CDF800A0356875
:104B5000079B069A39462046A8470CE0587C079BDD
:104B60000193069B0093A400084B02941C68049ACE
:104B700005993B46A0470CB0BDE8F087C401002072
:104B800014F6012020F6012044B704081CF6012089
:104B90002DE9F3410F4690460646FEF7A9FA036851
:104BA00002ACDB6844F8040D5B6A162100209847CC
:104BB00005462046FEF70EFB1DB1424639463046FB
:104BC000A84702B0BDE8F0812DE9F04F9BB0054643
:104BD00008910992002800F09983FEF789FA1AAB30
:104BE000446943F81C0D1846FEF7F4FA2846FFF70F
:104BF00097FD08280746A54E02DD002C00F0C9816C
:104C000001230027284619930D931897FEF770FA91
:104C10000268B0F90A3012690E930DF16809536801
:104C2000326849F8140D0469D0F81480D0F80CA04B
:104C3000B0F908B0507C0C93FFF728FA32680B905B
:104C4000507CFFF7E1FA0A904846FEF7C3FA082CB9
:104C50000A9A0D9B04D9102C8CBF0423022305E073
:104C6000012C03D118AB0D940A9301E00D930A9720
:104C70000C9B934200F0DF803368587CFFF7BCFA4E
:104C80000F904FEA8B00FEF74BF91090002800F0D0
:104C90003D832846FFF75EFD0546B8F1000F00F0A2
:104CA000B9804046FEF724FA05EB0A03119300236E
:104CB000DDF8249016900993119B099ACAEB03071B
:104CC0000E9B934240F3A2801698099A00231793F3
:104CD00083680DF15C085B6941469847834505464A
:104CE00028D11098FEF704FA0F9B0193082C0C9B17
:104CF0001490014600935A460B9B384602D906F0A1
:104D00007EFA01E006F09AFA0A9B05931AAD08981C
:104D100055F8183D0493002303930B9B0293012342
:104D2000019300935A46494602F074FB2846FEF769
:104D300051FA62E0012C02D04FF0010857E0002D3B
:104D40005BD01798089ECDF80CA000F007030693DF
:104D50000A9B0593082390FBF3F33B440493012340
:104D60002A460293019300934946304403F06EF8BB
:104D7000179B1698099A1D44836817955B694146ED
:104D800098470546DBE71098FEF7B2F90F9B1490A1
:104D900001460D9E17980193082C0C9B00932A4600
:104DA0000B9B00FB067025D906F029FA0A9B059398
:104DB000149B04931798089ECDF804800023039356
:104DC0000B9B02932A46012349463044CDF80080CC
:104DD00002F020FB14A8FEF7FDF9179B1698099A1C
:104DE0001D44836817955B6917A998470546002DF0
:104DF000C9D102E006F022FAD8E7099B01330993F2
:104E0000119B5344119309F1010955E716A8FEF7C8
:104E1000E1F90EE00A9B05930123049001930093AE
:104E2000CDF80CA002940E9B099908985A4602F0FE
:104E3000F1FA109868E22846FFF78CFC0746B8F1B3
:104E4000000F00F09A804046FEF752F900251690B8
:104E50000E9BAB4240F38D80169800231793836816
:104E60000DF15C085B692A46414698478345064632
:104E700026D12E461698836806F101095B694A46D9
:104E800041469847834503D14E46F3E7C4010020CD
:104E90000A9B09990593C5EB0608012308F101084F
:104EA0000497019300932944CDF80CA00294434643
:104EB0005A46089802F0AEFA0AFB0877354656E0E3
:104EC000012C099B04D02B440B934FF001092BE0DC
:104ED00003EB0509A0462EB3DDF85CE00898CDF899
:104EE0000CA00EF0070306930A9B059308239EFB74
:104EF000F3F33B4432467044049349460123CDF812
:104F00000880CDF80480CDF8008002F09FFF179B49
:104F100016981E44836817965B692A4617A9984716
:104F20000646D8E7574422E0002EFBD00A9BDDF866
:104F30005CE005930D9B08980B99CDF80CA003FB42
:104F40000E7332467044049302940123CDF804900A
:104F5000CDF8009002F05EFA179B16981E44836805
:104F600017965B692A46414698470646DCE70135B5
:104F70006EE716A8FEF72EF9C8E10A9B05930123F8
:104F8000019300930490CDF80CA002940E9B5A4616
:104F90003AE02846FEF7ACF883461AA8BBF90A3077
:104FA00040F810BDDBF800200B93DBF80C30D2F892
:104FB00010800C93BBF90840FEF70CF93268D8F862
:104FC0000490507CA14A52F82020166933680A9355
:104FD000FFF75CF808280C9B06D910288CBF4FF00F
:104FE000040A4FF0020A01E04FF0010AB04510D167
:104FF0000393012300220BF11800019300930B9BF4
:1050000005920490029722460999089802F002FA44
:105010007CE1202F40F0A2800AFB04F0FDF780FF26
:105020000D90002800F07281FEF762F81890284673
:10503000FEF75EF8169033694FEACA0200F11805D0
:105040004FEA840B0C9273B3DDF824804FF0010912
:10505000BAF1020F05D0BAF1040F02D0BAF1010F74
:1050600006D128463769189953462246B8475D4409
:105070000023189A059303930C9B049202932246F3
:105080000123CDF80490CDF800904146089802F035
:10509000C1F90B9B099A08F1010713449F4200F0E4
:1050A0002C81B846D4E7099F1E460B9B3B444FF02A
:1050B00001090993BAF1020FDDF8608016D0BAF148
:1050C000040F24D0BAF1010F30D143462A4652F8DA
:1050D000040B0E930A9B0B9298470E9B0B9A03F8B6
:1050E000010BE11A18EB010FF1D11EE043462A46ED
:1050F000A04652F8040B0E930A9B0B9298470E9B06
:105100000B9A23F8020BB8F10108F2D10DE02A4600
:10511000234652F8040B0E930A9B0B9298470E9B62
:1051200048F8040B013B0B9AF3D15D44189B0493A0
:105130000C9B0293059601230396CDF80490CDF8BD
:10514000009022463946089802F064F9099B07F15D
:105150000108434500F0D1804746ABE7102F40F0EF
:10516000D58004FB0AF0FDF7DBFE0D90002800F06F
:10517000CD80FDF7BDFF18902846FDF7B9FF1690CA
:10518000336900F1180713B1D8F8143053B94FEA56
:10519000CA03099D0C930B9B2B4466004FF0000B38
:1051A000099383E0B0F908008000FDF7B9FE0C9088
:1051B00018B1FDF79DFF179001E00C9B1793179B0B
:1051C000002B00F09A8063000A93DDF824B04FEAC8
:1051D000CA030E93BAF1020FDDF8609006D0BAF15F
:1051E000040F05D0BAF1010F11D101E0534600E0E0
:1051F0000223384622461799D8F81450A847534638
:105200002246494617983569A8470A9B1F44002340
:10521000059303930E9B189A029301230492019322
:10522000009322465946089802F0F4F80B9B099A1D
:105230000BF101091344994501D0CB46CAE717A8E1
:10524000FDF7C8FF0C98FDF79FFE56E014F601200D
:10525000BAF1040F41D0BAF1010F11D143463A46D9
:1052600032F8020B0B920E93C8470A9B98470E9B8D
:105270000B9A03F8010BE11A18EB010FF0D1374438
:10528000189B04930C9B0293012301930093CDF888
:1052900014B0CDF80CB022462946089802F0BAF8AE
:1052A000099B05F10108434527D04546BAF1020F95
:1052B000DDF86080CCD143463A46A04632F8020B76
:1052C0000B920E93C8470A9B98470E9B0B9A23F8A4
:1052D000020BB8F10108F1D1D1E73A46234632F882
:1052E000020B0B920E93C8470A9B98470E9B48F8F7
:1052F000040B013B0B9AF2D1C1E716A8FDF76AFF38
:1053000018A8FDF767FF0D98FDF73EFE1BB0BDE83E
:10531000F08F00BFF7B517490B6A002B0CBF06468C
:105320000026154B9D57012D21DD01EB86031A69DF
:10533000541C1C61DAB99C6851F8267011469A68B1
:105340000132AA4208BF0A46BA429A601646F6D00F
:10535000FEF7E6F9019050B1C36821215B6A01A80C
:105360009847034618B1324621460198984703B042
:10537000F0BD00BFDCF3012012F60120144B73B521
:105380001A6A002A0CBF04460024124A1257012A46
:1053900005461ADD03EB84042369013B2361A3B9AD
:1053A0000120A840FEF70AF9A668A6612846FEF784
:1053B000B7F9019048B1C36822215B6A01A89847F8
:1053C000034610B131460198984702B070BD00BF46
:1053D000DCF3012012F6012010B538B309B30AB38B
:1053E000B2F90040B1F90030A342A8BF23460380C0
:1053F000B2F90240B1F90230A342A8BF234643806C
:10540000B2F90440B1F90430B2F90620A342B8BFA2
:1054100023468380B1F906309342B8BF1346C38058
:1054200010BD11460B6803604B68436010BD68B146
:10543000038889B20B4403808388194443888180A0
:1054400092B213444380C3881A44C280704700005C
:1054500010B5FEF76FFF0B4A136851688B420BD0F3
:10546000094CA34293E8030014BF0833503B136078
:10547000012404F091FB00E0002400F0DDFE204652
:1054800010BD00BF700200205CF40120F0B4164D86
:10549000049E2D68059CB5F90870B842B8BF38461F
:1054A000B5F90C70BA42A8BF3A4690421ADCB5F979
:1054B0000A70B5F90E50B942B8BF3946AB42A8BF21
:1054C0002B468B420EDBE5682D6835F0040504D1D0
:1054D00005940496F0BC02F0C7BA2568002DF7D0F9
:1054E0002C46F0E7F0BC7047C4010020B0F9022060
:1054F000B1F906309A4214DCB1F90220B0F9063055
:105500009A420EDCB0F90020B1F904309A4208DC6E
:10551000B0F90400B1F900308342CCBF0020012073
:10552000704700207047000008B5034B0146742205
:105530001868FAF7DAFE08BDC401002073B502ADA1
:10554000C86145F8040D28460C46164601F0DCFDFE
:10555000164B984228D1284601F0D0FD20762846E7
:1055600001F0CCFD6076284601F0C8FD84F82000EB
:10557000284601F0C3FD84F82100284601F0BEFD55
:10558000012384F82200A376E376336823607368EE
:105590006360B368A360F368E36033692361736990
:1055A0006361204600F05CF902B070BD4755495078
:1055B0002DE9F0432B4E85B088460190FEF7A6FDFD
:1055C0003268D169CB7E4D7E15FB03F50023039332
:1055D000538D5B07074602D5FEF798FD01E0FEF705
:1055E0005FFD00F020F90024B8F1010826D401A8DD
:1055F00000F0F8FC336801461022D86900F09CF8EE
:1056000003900028F0D0B8F1000F10D103A801F0EA
:1056100075FD039B8146063303A8039301F06EFDDD
:1056200081450444E0DDC0EB09094C44DCE7083067
:10563000039003A801F062FD0444D5E73368B3F991
:105640002200B3F9241022186B18013B013A02F032
:1056500075F8384600F0E7F8034B01221A7005B0E0
:10566000BDE8F083C401002008F601200D4B1B6843
:1056700013B510220C460146D86900F05DF8019080
:1056800070B13CB101A801F039FD019B20600633E7
:10569000019301E00830019001A801F02FFD00B254
:1056A00002B010BDC4010020114B1B6813B51022BD
:1056B0000C460146D86900F03FF80190A8B101A856
:1056C00001F01CFD207001A801F018FD607001A818
:1056D00001F014FDA07001A801F010FDE07001A818
:1056E00001F00CFD2071002000E0012002B010BD8F
:1056F000C401002037B5C36902AC043344F8043D4B
:1057000020460D4601F0FAFCA870204601F0F6FC98
:10571000E870204601F0F2FC012328712B8003B0D1
:1057200030BD07B5C36902A80E3340F8043D01F04F
:10573000E5FC03B05DF804FB2DE9F7430546884618
:105740001746FFF7EEFF0446E8690DF1080910302F
:1057500049F8040D00EB8405484601F0CFFC0646ED
:10576000484601F0CBFC464506D8404504D3C6EB7D
:10577000080007FB005006E0801B00FB0770013C9F
:105780000544E9D1204603B0BDE8F08308B5054BD8
:105790001B681022D869FFF7CFFF003018BF012027
:1057A00008BD00BFC401002008B5034B742219686E
:1057B000FAF79BFD08BD00BFC401002008B5FEF745
:1057C000B9FD02F023FA02F02FFB03F07DFBBDE8E8
:1057D000084000F031BD000070B50B4D2B68044649
:1057E0005E7CFEF7A7FD012C09D82046FDF798FF47
:1057F00028B12B685C74FFF7E1FF044B1C6000F0DC
:105800001BFD304670BD00BFC401002064FA0120BA
:1058100010B50446FEF78EFD204602F017FABDE8EB
:10582000104000F009BD10B50446FEF783FD204688
:1058300002F044FABDE8104000F0FEBC014B586095
:10584000704700BFB401002010B50446FEF772FD9A
:10585000204602F04BFA044600F0EEFC204610BD54
:1058600038B50446FEF766FD044B1B68DD6904B1DC
:10587000DC6100F0E1FC284638BD00BFC401002017
:1058800038B50546FEF756FD034B1B689C7E9D769A
:1058900000F0D2FC204638BDC401002070B504469B
:1058A0000D46FEF747FD094B1C80094B1D80094B37
:1058B0001B685A7C084B53F82200C2682146166ABE
:1058C0002A46B047BDE8704000F0B6BCFEF50120A6
:1058D00000F60120C401002014F6012038B5054669
:1058E000FEF728FD034B1B681C7E1D7600F0A4FC10
:1058F000204638BDC401002038B50546FEF71AFD24
:10590000044B1B68B3F92C409D8500F095FC2046A4
:1059100038BD00BFC401002038B50546FEF70AFDBA
:10592000044B1B68B3F92A405D8500F085FC2046D6
:1059300038BD00BFC4010020024B1B6803B11847EB
:10594000704700BFA0F40120024B1A6802B918602A
:10595000FFF7F2BF08F401202DE9F34180460C4621
:1059600017461E46FEF7E6FC1C20FDF7E7FA054643
:10597000002830D01B4B1C4A1A60FDF7B9FB009081
:1059800014B9FEF709FC044602A850F8083D5C6112
:10599000C3F800801F619E81144CFDF71BFC284654
:1059A00007F08AFFA3683BB901232046A360104B90
:1059B00040F80C3F01F0BCFB2846FDF799FB23683B
:1059C00001900A4A13B91560836001E08360156095
:1059D00001A8FDF7FFFB00F02FFC284602B0BDE850
:1059E000F08100BF38F60120655A0008F8F4012064
:1059F00009DC000873B5044678B3194EFEF79AFC2B
:105A00003568AC420CD12046FDF772FB02AB8268D0
:105A100043F8040D3260184615E06846FDF7DAFBDE
:105A20009DB12846FDF764FB85680090AC42F4D137
:105A30002046FDF75DFB009B826801909A6001A8FB
:105A4000FDF7C8FB6846FDF7C5FB204608F0D6FD0C
:105A50002046FDF799FA00F0EFFB02B070BD00BFE1
:105A6000F8F401202DE9F0431B4C85B0FEF762FCF1
:105A700067680025A04663683BB3FEF78DFB0646CA
:105A8000D8F80400FDF734FB436900909B1B002B02
:105A900018DCD8F804300393019603694668D0F8FF
:105AA000009002936846C8F80460FDF793FB01A8D4
:105AB000C84756B1D8F804309F424FF00105DAD1FB
:105AC000002502E06846FDF785FB00F0B5FB28469F
:105AD00005B0BDE8F08300BFF8F4012037B50D46EE
